{
  "_format": "hh-sol-artifact-1",
  "contractName": "MyEpicNFT",
  "sourceName": "contracts/MyEpicNFT.sol",
  "abi": [
    {
      "inputs": [],
      "stateMutability": "nonpayable",
      "type": "constructor"
    },
    {
      "anonymous": false,
      "inputs": [
        {
          "indexed": true,
          "internalType": "address",
          "name": "owner",
          "type": "address"
        },
        {
          "indexed": true,
          "internalType": "address",
          "name": "approved",
          "type": "address"
        },
        {
          "indexed": true,
          "internalType": "uint256",
          "name": "tokenId",
          "type": "uint256"
        }
      ],
      "name": "Approval",
      "type": "event"
    },
    {
      "anonymous": false,
      "inputs": [
        {
          "indexed": true,
          "internalType": "address",
          "name": "owner",
          "type": "address"
        },
        {
          "indexed": true,
          "internalType": "address",
          "name": "operator",
          "type": "address"
        },
        {
          "indexed": false,
          "internalType": "bool",
          "name": "approved",
          "type": "bool"
        }
      ],
      "name": "ApprovalForAll",
      "type": "event"
    },
    {
      "anonymous": false,
      "inputs": [
        {
          "indexed": false,
          "internalType": "address",
          "name": "sender",
          "type": "address"
        },
        {
          "indexed": false,
          "internalType": "uint256",
          "name": "total",
          "type": "uint256"
        }
      ],
      "name": "NewEpicNFTMinted",
      "type": "event"
    },
    {
      "anonymous": false,
      "inputs": [
        {
          "indexed": true,
          "internalType": "address",
          "name": "from",
          "type": "address"
        },
        {
          "indexed": true,
          "internalType": "address",
          "name": "to",
          "type": "address"
        },
        {
          "indexed": true,
          "internalType": "uint256",
          "name": "tokenId",
          "type": "uint256"
        }
      ],
      "name": "Transfer",
      "type": "event"
    },
    {
      "inputs": [
        {
          "internalType": "address",
          "name": "to",
          "type": "address"
        },
        {
          "internalType": "uint256",
          "name": "tokenId",
          "type": "uint256"
        }
      ],
      "name": "approve",
      "outputs": [],
      "stateMutability": "nonpayable",
      "type": "function"
    },
    {
      "inputs": [
        {
          "internalType": "address",
          "name": "owner",
          "type": "address"
        }
      ],
      "name": "balanceOf",
      "outputs": [
        {
          "internalType": "uint256",
          "name": "",
          "type": "uint256"
        }
      ],
      "stateMutability": "view",
      "type": "function"
    },
    {
      "inputs": [
        {
          "internalType": "uint256",
          "name": "tokenId",
          "type": "uint256"
        }
      ],
      "name": "getApproved",
      "outputs": [
        {
          "internalType": "address",
          "name": "",
          "type": "address"
        }
      ],
      "stateMutability": "view",
      "type": "function"
    },
    {
      "inputs": [],
      "name": "getCurrentToken",
      "outputs": [
        {
          "internalType": "uint256",
          "name": "",
          "type": "uint256"
        }
      ],
      "stateMutability": "view",
      "type": "function"
    },
    {
      "inputs": [
        {
          "internalType": "address",
          "name": "owner",
          "type": "address"
        },
        {
          "internalType": "address",
          "name": "operator",
          "type": "address"
        }
      ],
      "name": "isApprovedForAll",
      "outputs": [
        {
          "internalType": "bool",
          "name": "",
          "type": "bool"
        }
      ],
      "stateMutability": "view",
      "type": "function"
    },
    {
      "inputs": [],
      "name": "makeAnEpicNFT",
      "outputs": [],
      "stateMutability": "nonpayable",
      "type": "function"
    },
    {
      "inputs": [],
      "name": "name",
      "outputs": [
        {
          "internalType": "string",
          "name": "",
          "type": "string"
        }
      ],
      "stateMutability": "view",
      "type": "function"
    },
    {
      "inputs": [
        {
          "internalType": "uint256",
          "name": "tokenId",
          "type": "uint256"
        }
      ],
      "name": "ownerOf",
      "outputs": [
        {
          "internalType": "address",
          "name": "",
          "type": "address"
        }
      ],
      "stateMutability": "view",
      "type": "function"
    },
    {
      "inputs": [
        {
          "internalType": "uint256",
          "name": "tokenId",
          "type": "uint256"
        }
      ],
      "name": "pickRandomColor",
      "outputs": [
        {
          "internalType": "string",
          "name": "",
          "type": "string"
        }
      ],
      "stateMutability": "view",
      "type": "function"
    },
    {
      "inputs": [
        {
          "internalType": "uint256",
          "name": "tokenId",
          "type": "uint256"
        }
      ],
      "name": "pickRandomFirstWord",
      "outputs": [
        {
          "internalType": "string",
          "name": "",
          "type": "string"
        }
      ],
      "stateMutability": "view",
      "type": "function"
    },
    {
      "inputs": [
        {
          "internalType": "uint256",
          "name": "tokenId",
          "type": "uint256"
        }
      ],
      "name": "pickRandomSecondWord",
      "outputs": [
        {
          "internalType": "string",
          "name": "",
          "type": "string"
        }
      ],
      "stateMutability": "view",
      "type": "function"
    },
    {
      "inputs": [
        {
          "internalType": "uint256",
          "name": "tokenId",
          "type": "uint256"
        }
      ],
      "name": "pickRandomThirdWord",
      "outputs": [
        {
          "internalType": "string",
          "name": "",
          "type": "string"
        }
      ],
      "stateMutability": "view",
      "type": "function"
    },
    {
      "inputs": [
        {
          "internalType": "address",
          "name": "from",
          "type": "address"
        },
        {
          "internalType": "address",
          "name": "to",
          "type": "address"
        },
        {
          "internalType": "uint256",
          "name": "tokenId",
          "type": "uint256"
        }
      ],
      "name": "safeTransferFrom",
      "outputs": [],
      "stateMutability": "nonpayable",
      "type": "function"
    },
    {
      "inputs": [
        {
          "internalType": "address",
          "name": "from",
          "type": "address"
        },
        {
          "internalType": "address",
          "name": "to",
          "type": "address"
        },
        {
          "internalType": "uint256",
          "name": "tokenId",
          "type": "uint256"
        },
        {
          "internalType": "bytes",
          "name": "_data",
          "type": "bytes"
        }
      ],
      "name": "safeTransferFrom",
      "outputs": [],
      "stateMutability": "nonpayable",
      "type": "function"
    },
    {
      "inputs": [
        {
          "internalType": "address",
          "name": "operator",
          "type": "address"
        },
        {
          "internalType": "bool",
          "name": "approved",
          "type": "bool"
        }
      ],
      "name": "setApprovalForAll",
      "outputs": [],
      "stateMutability": "nonpayable",
      "type": "function"
    },
    {
      "inputs": [
        {
          "internalType": "bytes4",
          "name": "interfaceId",
          "type": "bytes4"
        }
      ],
      "name": "supportsInterface",
      "outputs": [
        {
          "internalType": "bool",
          "name": "",
          "type": "bool"
        }
      ],
      "stateMutability": "view",
      "type": "function"
    },
    {
      "inputs": [],
      "name": "symbol",
      "outputs": [
        {
          "internalType": "string",
          "name": "",
          "type": "string"
        }
      ],
      "stateMutability": "view",
      "type": "function"
    },
    {
      "inputs": [
        {
          "internalType": "uint256",
          "name": "tokenId",
          "type": "uint256"
        }
      ],
      "name": "tokenURI",
      "outputs": [
        {
          "internalType": "string",
          "name": "",
          "type": "string"
        }
      ],
      "stateMutability": "view",
      "type": "function"
    },
    {
      "inputs": [],
      "name": "totalToken",
      "outputs": [
        {
          "internalType": "uint256",
          "name": "",
          "type": "uint256"
        }
      ],
      "stateMutability": "view",
      "type": "function"
    },
    {
      "inputs": [
        {
          "internalType": "address",
          "name": "from",
          "type": "address"
        },
        {
          "internalType": "address",
          "name": "to",
          "type": "address"
        },
        {
          "internalType": "uint256",
          "name": "tokenId",
          "type": "uint256"
        }
      ],
      "name": "transferFrom",
      "outputs": [],
      "stateMutability": "nonpayable",
      "type": "function"
    }
  ],
  "bytecode": "0x6080604052605660085560405180610100016040528060d38152602001620047c060d39139600990805190602001906200003b92919062000831565b506040518060800160405280605681526020016200489360569139600a90805190602001906200006d92919062000831565b506040518060c001604052806040518060400160405280600881526020017f487964726f67656e00000000000000000000000000000000000000000000000081525081526020016040518060400160405280600781526020017f4c69746869756d0000000000000000000000000000000000000000000000000081525081526020016040518060400160405280600681526020017f536f6469756d000000000000000000000000000000000000000000000000000081525081526020016040518060400160405280600981526020017f506f7461737369756d000000000000000000000000000000000000000000000081525081526020016040518060400160405280600881526020017f527562696469756d00000000000000000000000000000000000000000000000081525081526020016040518060400160405280600781526020017f4361657369756d00000000000000000000000000000000000000000000000000815250815250600b906006620001eb929190620008c2565b506040518060c001604052806040518060400160405280600981526020017f426572796c6c69756d000000000000000000000000000000000000000000000081525081526020016040518060400160405280600981526020017f4d61676e657369756d000000000000000000000000000000000000000000000081525081526020016040518060400160405280600781526020017f43616c6369756d0000000000000000000000000000000000000000000000000081525081526020016040518060400160405280600981526020017f5374726f6e7469756d000000000000000000000000000000000000000000000081525081526020016040518060400160405280600681526020017f42617269756d000000000000000000000000000000000000000000000000000081525081526020016040518060400160405280600681526020017f52616469756d0000000000000000000000000000000000000000000000000000815250815250600c90600662000369929190620008c2565b506040518060c001604052806040518060400160405280600681526020017f48656c69756d000000000000000000000000000000000000000000000000000081525081526020016040518060400160405280600481526020017f4e656f6e0000000000000000000000000000000000000000000000000000000081525081526020016040518060400160405280600581526020017f4172676f6e00000000000000000000000000000000000000000000000000000081525081526020016040518060400160405280600781526020017f4b727970746f6e0000000000000000000000000000000000000000000000000081525081526020016040518060400160405280600581526020017f58656e6f6e00000000000000000000000000000000000000000000000000000081525081526020016040518060400160405280600581526020017f5261646f6e000000000000000000000000000000000000000000000000000000815250815250600d906006620004e7929190620008c2565b506040518060c001604052806040518060400160405280600381526020017f726564000000000000000000000000000000000000000000000000000000000081525081526020016040518060400160405280600781526020017f233038433241380000000000000000000000000000000000000000000000000081525081526020016040518060400160405280600581526020017f626c61636b00000000000000000000000000000000000000000000000000000081525081526020016040518060400160405280600681526020017f79656c6c6f77000000000000000000000000000000000000000000000000000081525081526020016040518060400160405280600481526020017f626c75650000000000000000000000000000000000000000000000000000000081525081526020016040518060400160405280600581526020017f677265656e000000000000000000000000000000000000000000000000000000815250815250600e90600662000665929190620008c2565b503480156200067357600080fd5b506040518060400160405280600981526020017f5371756172654e465400000000000000000000000000000000000000000000008152506040518060400160405280600681526020017f53515541524500000000000000000000000000000000000000000000000000008152508160009080519060200190620006f892919062000831565b5080600190805190602001906200071192919062000831565b5050506200075f6040518060400160405280601e81526020017f54686973206973206d79204e465420636f6e74726163742e20576f61682100008152506200076560201b620014541760201c565b62000ae3565b62000805816040516024016200077c9190620009f7565b6040516020818303038152906040527f41304fac000000000000000000000000000000000000000000000000000000007bffffffffffffffffffffffffffffffffffffffffffffffffffffffff19166020820180517bffffffffffffffffffffffffffffffffffffffffffffffffffffffff83818316178352505050506200080860201b60201c565b50565b60008151905060006a636f6e736f6c652e6c6f679050602083016000808483855afa5050505050565b8280546200083f9062000a6d565b90600052602060002090601f016020900481019282620008635760008555620008af565b82601f106200087e57805160ff1916838001178555620008af565b82800160010185558215620008af579182015b82811115620008ae57825182559160200191906001019062000891565b5b509050620008be919062000929565b5090565b82805482825590600052602060002090810192821562000916579160200282015b82811115620009155782518290805190602001906200090492919062000831565b5091602001919060010190620008e3565b5b50905062000925919062000948565b5090565b5b80821115620009445760008160009055506001016200092a565b5090565b5b808211156200096c576000818162000962919062000970565b5060010162000949565b5090565b5080546200097e9062000a6d565b6000825580601f10620009925750620009b3565b601f016020900490600052602060002090810190620009b2919062000929565b5b50565b6000620009c38262000a1b565b620009cf818562000a26565b9350620009e181856020860162000a37565b620009ec8162000ad2565b840191505092915050565b6000602082019050818103600083015262000a138184620009b6565b905092915050565b600081519050919050565b600082825260208201905092915050565b60005b8381101562000a5757808201518184015260208101905062000a3a565b8381111562000a67576000848401525b50505050565b6000600282049050600182168062000a8657607f821691505b6020821081141562000a9d5762000a9c62000aa3565b5b50919050565b7f4e487b7100000000000000000000000000000000000000000000000000000000600052602260045260246000fd5b6000601f19601f8301169050919050565b613ccd8062000af36000396000f3fe608060405234801561001057600080fd5b506004361061012c5760003560e01c806370a08231116100ad578063c575757a11610071578063c575757a14610367578063c87b56dd14610397578063de9d132f146103c7578063e985e9c5146103d1578063ef2d1746146104015761012c565b806370a08231146102b157806395d89b41146102e1578063a22cb465146102ff578063b187301f1461031b578063b88d4fde1461034b5761012c565b80632de38d68116100f45780632de38d68146101e757806342842e0e14610217578063514dc8c614610233578063626be567146102635780636352211e146102815761012c565b806301ffc9a71461013157806306fdde0314610161578063081812fc1461017f578063095ea7b3146101af57806323b872dd146101cb575b600080fd5b61014b600480360381019061014691906126e7565b61041f565b6040516101589190612e73565b60405180910390f35b610169610501565b6040516101769190612e8e565b60405180910390f35b61019960048036038101906101949190612739565b610593565b6040516101a69190612de3565b60405180910390f35b6101c960048036038101906101c491906126ab565b610618565b005b6101e560048036038101906101e091906125a5565b610730565b005b61020160048036038101906101fc9190612739565b610790565b60405161020e9190612e8e565b60405180910390f35b610231600480360381019061022c91906125a5565b6108ae565b005b61024d60048036038101906102489190612739565b6108ce565b60405161025a9190612e8e565b60405180910390f35b61026b6109ec565b604051610278919061310e565b60405180910390f35b61029b60048036038101906102969190612739565b6109f2565b6040516102a89190612de3565b60405180910390f35b6102cb60048036038101906102c69190612540565b610aa4565b6040516102d8919061310e565b60405180910390f35b6102e9610b5c565b6040516102f69190612e8e565b60405180910390f35b6103196004803603810190610314919061266f565b610bee565b005b61033560048036038101906103309190612739565b610d6f565b6040516103429190612e8e565b60405180910390f35b610365600480360381019061036091906125f4565b610e8d565b005b610381600480360381019061037c9190612739565b610eef565b60405161038e9190612e8e565b60405180910390f35b6103b160048036038101906103ac9190612739565b61100d565b6040516103be9190612e8e565b60405180910390f35b6103cf61115f565b005b6103eb60048036038101906103e69190612569565b6113af565b6040516103f89190612e73565b60405180910390f35b610409611443565b604051610416919061310e565b60405180910390f35b60007f80ac58cd000000000000000000000000000000000000000000000000000000007bffffffffffffffffffffffffffffffffffffffffffffffffffffffff1916827bffffffffffffffffffffffffffffffffffffffffffffffffffffffff191614806104ea57507f5b5e139f000000000000000000000000000000000000000000000000000000007bffffffffffffffffffffffffffffffffffffffffffffffffffffffff1916827bffffffffffffffffffffffffffffffffffffffffffffffffffffffff1916145b806104fa57506104f9826114ed565b5b9050919050565b606060008054610510906133a2565b80601f016020809104026020016040519081016040528092919081815260200182805461053c906133a2565b80156105895780601f1061055e57610100808354040283529160200191610589565b820191906000526020600020905b81548152906001019060200180831161056c57829003601f168201915b5050505050905090565b600061059e82611557565b6105dd576040517f08c379a00000000000000000000000000000000000000000000000000000000081526004016105d49061306e565b60405180910390fd5b6004600083815260200190815260200160002060009054906101000a900473ffffffffffffffffffffffffffffffffffffffff169050919050565b6000610623826109f2565b90508073ffffffffffffffffffffffffffffffffffffffff168373ffffffffffffffffffffffffffffffffffffffff161415610694576040517f08c379a000000000000000000000000000000000000000000000000000000000815260040161068b906130ce565b60405180910390fd5b8073ffffffffffffffffffffffffffffffffffffffff166106b36115c3565b73ffffffffffffffffffffffffffffffffffffffff1614806106e257506106e1816106dc6115c3565b6113af565b5b610721576040517f08c379a000000000000000000000000000000000000000000000000000000000815260040161071890612f8e565b60405180910390fd5b61072b83836115cb565b505050565b61074161073b6115c3565b82611684565b610780576040517f08c379a0000000000000000000000000000000000000000000000000000000008152600401610777906130ee565b60405180910390fd5b61078b838383611762565b505050565b606060006107c46107a0846119be565b6040516020016107b09190612d7d565b604051602081830303815290604052611b6b565b9050600b80549050816107d7919061344e565b9050600b8181548110610813577f4e487b7100000000000000000000000000000000000000000000000000000000600052603260045260246000fd5b906000526020600020018054610828906133a2565b80601f0160208091040260200160405190810160405280929190818152602001828054610854906133a2565b80156108a15780601f10610876576101008083540402835291602001916108a1565b820191906000526020600020905b81548152906001019060200180831161088457829003601f168201915b5050505050915050919050565b6108c983838360405180602001604052806000815250610e8d565b505050565b606060006109026108de846119be565b6040516020016108ee9190612dc1565b604051602081830303815290604052611b6b565b9050600e8054905081610915919061344e565b9050600e8181548110610951577f4e487b7100000000000000000000000000000000000000000000000000000000600052603260045260246000fd5b906000526020600020018054610966906133a2565b80601f0160208091040260200160405190810160405280929190818152602001828054610992906133a2565b80156109df5780601f106109b4576101008083540402835291602001916109df565b820191906000526020600020905b8154815290600101906020018083116109c257829003601f168201915b5050505050915050919050565b60085481565b6000806002600084815260200190815260200160002060009054906101000a900473ffffffffffffffffffffffffffffffffffffffff169050600073ffffffffffffffffffffffffffffffffffffffff168173ffffffffffffffffffffffffffffffffffffffff161415610a9b576040517f08c379a0000000000000000000000000000000000000000000000000000000008152600401610a9290612fce565b60405180910390fd5b80915050919050565b60008073ffffffffffffffffffffffffffffffffffffffff168273ffffffffffffffffffffffffffffffffffffffff161415610b15576040517f08c379a0000000000000000000000000000000000000000000000000000000008152600401610b0c90612fae565b60405180910390fd5b600360008373ffffffffffffffffffffffffffffffffffffffff1673ffffffffffffffffffffffffffffffffffffffff168152602001908152602001600020549050919050565b606060018054610b6b906133a2565b80601f0160208091040260200160405190810160405280929190818152602001828054610b97906133a2565b8015610be45780601f10610bb957610100808354040283529160200191610be4565b820191906000526020600020905b815481529060010190602001808311610bc757829003601f168201915b5050505050905090565b610bf66115c3565b73ffffffffffffffffffffffffffffffffffffffff168273ffffffffffffffffffffffffffffffffffffffff161415610c64576040517f08c379a0000000000000000000000000000000000000000000000000000000008152600401610c5b90612f4e565b60405180910390fd5b8060056000610c716115c3565b73ffffffffffffffffffffffffffffffffffffffff1673ffffffffffffffffffffffffffffffffffffffff16815260200190815260200160002060008473ffffffffffffffffffffffffffffffffffffffff1673ffffffffffffffffffffffffffffffffffffffff16815260200190815260200160002060006101000a81548160ff0219169083151502179055508173ffffffffffffffffffffffffffffffffffffffff16610d1e6115c3565b73ffffffffffffffffffffffffffffffffffffffff167f17307eab39ab6107e8899845ad3d59bd9653f200f220920489ca2b5937696c3183604051610d639190612e73565b60405180910390a35050565b60606000610da3610d7f846119be565b604051602001610d8f9190612d16565b604051602081830303815290604052611b6b565b9050600c8054905081610db6919061344e565b9050600c8181548110610df2577f4e487b7100000000000000000000000000000000000000000000000000000000600052603260045260246000fd5b906000526020600020018054610e07906133a2565b80601f0160208091040260200160405190810160405280929190818152602001828054610e33906133a2565b8015610e805780601f10610e5557610100808354040283529160200191610e80565b820191906000526020600020905b815481529060010190602001808311610e6357829003601f168201915b5050505050915050919050565b610e9e610e986115c3565b83611684565b610edd576040517f08c379a0000000000000000000000000000000000000000000000000000000008152600401610ed4906130ee565b60405180910390fd5b610ee984848484611b9e565b50505050565b60606000610f23610eff846119be565b604051602001610f0f9190612cf4565b604051602081830303815290604052611b6b565b9050600d8054905081610f36919061344e565b9050600d8181548110610f72577f4e487b7100000000000000000000000000000000000000000000000000000000600052603260045260246000fd5b906000526020600020018054610f87906133a2565b80601f0160208091040260200160405190810160405280929190818152602001828054610fb3906133a2565b80156110005780601f10610fd557610100808354040283529160200191611000565b820191906000526020600020905b815481529060010190602001808311610fe357829003601f168201915b5050505050915050919050565b606061101882611557565b611057576040517f08c379a000000000000000000000000000000000000000000000000000000000815260040161104e9061304e565b60405180910390fd5b6000600660008481526020019081526020016000208054611077906133a2565b80601f01602080910402602001604051908101604052809291908181526020018280546110a3906133a2565b80156110f05780601f106110c5576101008083540402835291602001916110f0565b820191906000526020600020905b8154815290600101906020018083116110d357829003601f168201915b505050505090506000611101611bfa565b905060008151141561111757819250505061115a565b60008251111561114c578082604051602001611134929190612c56565b6040516020818303038152906040529250505061115a565b61115584611c11565b925050505b919050565b60085461116c6007611cb8565b106111ac576040517f08c379a00000000000000000000000000000000000000000000000000000000081526004016111a39061300e565b60405180910390fd5b60006111b86007611cb8565b905060006111c582610790565b905060006111d283610d6f565b905060006111df84610eef565b905060008383836040516020016111f893929190612c7a565b60405160208183030381529060405290506000611214866108ce565b90506000600982600a856040516020016112319493929190612cab565b604051602081830303815290604052905060006112768461125184611cc6565b604051602001611262929190612d38565b604051602081830303815290604052611cc6565b905060008160405160200161128b9190612d9f565b60405160208183030381529060405290506112da6040518060400160405280601581526020017f0a2d2d2d2d2d2d2d2d2d2d2d2d2d2d2d2d2d2d2d2d0000000000000000000000815250611454565b6112e381611454565b6113216040518060400160405280601581526020017f2d2d2d2d2d2d2d2d2d2d2d2d2d2d2d2d2d2d2d2d0a0000000000000000000000815250611454565b61132b338a611e84565b6113358982611ea2565b61133f6007611f16565b611362604051806060016040528060258152602001613c33602591398a33611f2c565b7febb98688741ffa4c7589bf325de30cf7becb63de567842e1ccdb6cb949fdc82c3361138e6007611cb8565b60405161139c929190612e4a565b60405180910390a1505050505050505050565b6000600560008473ffffffffffffffffffffffffffffffffffffffff1673ffffffffffffffffffffffffffffffffffffffff16815260200190815260200160002060008373ffffffffffffffffffffffffffffffffffffffff1673ffffffffffffffffffffffffffffffffffffffff16815260200190815260200160002060009054906101000a900460ff16905092915050565b600061144f6007611cb8565b905090565b6114ea816040516024016114689190612e8e565b6040516020818303038152906040527f41304fac000000000000000000000000000000000000000000000000000000007bffffffffffffffffffffffffffffffffffffffffffffffffffffffff19166020820180517bffffffffffffffffffffffffffffffffffffffffffffffffffffffff8381831617835250505050611fcb565b50565b60007f01ffc9a7000000000000000000000000000000000000000000000000000000007bffffffffffffffffffffffffffffffffffffffffffffffffffffffff1916827bffffffffffffffffffffffffffffffffffffffffffffffffffffffff1916149050919050565b60008073ffffffffffffffffffffffffffffffffffffffff166002600084815260200190815260200160002060009054906101000a900473ffffffffffffffffffffffffffffffffffffffff1673ffffffffffffffffffffffffffffffffffffffff1614159050919050565b600033905090565b816004600083815260200190815260200160002060006101000a81548173ffffffffffffffffffffffffffffffffffffffff021916908373ffffffffffffffffffffffffffffffffffffffff160217905550808273ffffffffffffffffffffffffffffffffffffffff1661163e836109f2565b73ffffffffffffffffffffffffffffffffffffffff167f8c5be1e5ebec7d5bd14f71427d1e84f3dd0314c0f7b2291e5b200ac8c7c3b92560405160405180910390a45050565b600061168f82611557565b6116ce576040517f08c379a00000000000000000000000000000000000000000000000000000000081526004016116c590612f6e565b60405180910390fd5b60006116d9836109f2565b90508073ffffffffffffffffffffffffffffffffffffffff168473ffffffffffffffffffffffffffffffffffffffff16148061174857508373ffffffffffffffffffffffffffffffffffffffff1661173084610593565b73ffffffffffffffffffffffffffffffffffffffff16145b80611759575061175881856113af565b5b91505092915050565b8273ffffffffffffffffffffffffffffffffffffffff16611782826109f2565b73ffffffffffffffffffffffffffffffffffffffff16146117d8576040517f08c379a00000000000000000000000000000000000000000000000000000000081526004016117cf9061308e565b60405180910390fd5b600073ffffffffffffffffffffffffffffffffffffffff168273ffffffffffffffffffffffffffffffffffffffff161415611848576040517f08c379a000000000000000000000000000000000000000000000000000000000815260040161183f90612f2e565b60405180910390fd5b611853838383611ff4565b61185e6000826115cb565b6001600360008573ffffffffffffffffffffffffffffffffffffffff1673ffffffffffffffffffffffffffffffffffffffff16815260200190815260200160002060008282546118ae91906132b8565b925050819055506001600360008473ffffffffffffffffffffffffffffffffffffffff1673ffffffffffffffffffffffffffffffffffffffff168152602001908152602001600020600082825461190591906131d7565b92505081905550816002600083815260200190815260200160002060006101000a81548173ffffffffffffffffffffffffffffffffffffffff021916908373ffffffffffffffffffffffffffffffffffffffff160217905550808273ffffffffffffffffffffffffffffffffffffffff168473ffffffffffffffffffffffffffffffffffffffff167fddf252ad1be2c89b69c2b068fc378daa952ba7f163c4a11628f55a4df523b3ef60405160405180910390a4505050565b60606000821415611a06576040518060400160405280600181526020017f30000000000000000000000000000000000000000000000000000000000000008152509050611b66565b600082905060005b60008214611a38578080611a2190613405565b915050600a82611a31919061322d565b9150611a0e565b60008167ffffffffffffffff811115611a7a577f4e487b7100000000000000000000000000000000000000000000000000000000600052604160045260246000fd5b6040519080825280601f01601f191660200182016040528015611aac5781602001600182028036833780820191505090505b5090505b60008514611b5f57600182611ac591906132b8565b9150600a85611ad4919061344e565b6030611ae091906131d7565b60f81b818381518110611b1c577f4e487b7100000000000000000000000000000000000000000000000000000000600052603260045260246000fd5b60200101907effffffffffffffffffffffffffffffffffffffffffffffffffffffffffffff1916908160001a905350600a85611b58919061322d565b9450611ab0565b8093505050505b919050565b600081604051602001611b7e9190612c3f565b6040516020818303038152906040528051906020012060001c9050919050565b611ba9848484611762565b611bb584848484611ff9565b611bf4576040517f08c379a0000000000000000000000000000000000000000000000000000000008152600401611beb90612eee565b60405180910390fd5b50505050565b606060405180602001604052806000815250905090565b6060611c1c82611557565b611c5b576040517f08c379a0000000000000000000000000000000000000000000000000000000008152600401611c52906130ae565b60405180910390fd5b6000611c65611bfa565b90506000815111611c855760405180602001604052806000815250611cb0565b80611c8f846119be565b604051602001611ca0929190612c56565b6040516020818303038152906040525b915050919050565b600081600001549050919050565b60606000825190506000811415611cef5760405180602001604052806000815250915050611e7f565b60006003600283611d0091906131d7565b611d0a919061322d565b6004611d16919061325e565b90506000602082611d2791906131d7565b67ffffffffffffffff811115611d66577f4e487b7100000000000000000000000000000000000000000000000000000000600052604160045260246000fd5b6040519080825280601f01601f191660200182016040528015611d985781602001600182028036833780820191505090505b5090506000604051806060016040528060408152602001613c58604091399050600181016020830160005b86811015611e3c5760038101905062ffffff818a015116603f8160121c168401518060081b905060ff603f83600c1c1686015116810190508060081b905060ff603f8360061c1686015116810190508060081b905060ff603f831686015116810190508060e01b90508084526004840193505050611dc3565b506003860660018114611e565760028114611e6657611e71565b613d3d60f01b6002830352611e71565b603d60f81b60018303525b508484525050819450505050505b919050565b611e9e828260405180602001604052806000815250612190565b5050565b611eab82611557565b611eea576040517f08c379a0000000000000000000000000000000000000000000000000000000008152600401611ee190612fee565b60405180910390fd5b80600660008481526020019081526020016000209080519060200190611f119291906123cc565b505050565b6001816000016000828254019250508190555050565b611fc6838383604051602401611f4493929190612eb0565b6040516020818303038152906040527fe3849f79000000000000000000000000000000000000000000000000000000007bffffffffffffffffffffffffffffffffffffffffffffffffffffffff19166020820180517bffffffffffffffffffffffffffffffffffffffffffffffffffffffff8381831617835250505050611fcb565b505050565b60008151905060006a636f6e736f6c652e6c6f679050602083016000808483855afa5050505050565b505050565b600061201a8473ffffffffffffffffffffffffffffffffffffffff166121eb565b15612183578373ffffffffffffffffffffffffffffffffffffffff1663150b7a026120436115c3565b8786866040518563ffffffff1660e01b81526004016120659493929190612dfe565b602060405180830381600087803b15801561207f57600080fd5b505af19250505080156120b057506040513d601f19601f820116820180604052508101906120ad9190612710565b60015b612133573d80600081146120e0576040519150601f19603f3d011682016040523d82523d6000602084013e6120e5565b606091505b5060008151141561212b576040517f08c379a000000000000000000000000000000000000000000000000000000000815260040161212290612eee565b60405180910390fd5b805181602001fd5b63150b7a0260e01b7bffffffffffffffffffffffffffffffffffffffffffffffffffffffff1916817bffffffffffffffffffffffffffffffffffffffffffffffffffffffff191614915050612188565b600190505b949350505050565b61219a83836121fe565b6121a76000848484611ff9565b6121e6576040517f08c379a00000000000000000000000000000000000000000000000000000000081526004016121dd90612eee565b60405180910390fd5b505050565b600080823b905060008111915050919050565b600073ffffffffffffffffffffffffffffffffffffffff168273ffffffffffffffffffffffffffffffffffffffff16141561226e576040517f08c379a00000000000000000000000000000000000000000000000000000000081526004016122659061302e565b60405180910390fd5b61227781611557565b156122b7576040517f08c379a00000000000000000000000000000000000000000000000000000000081526004016122ae90612f0e565b60405180910390fd5b6122c360008383611ff4565b6001600360008473ffffffffffffffffffffffffffffffffffffffff1673ffffffffffffffffffffffffffffffffffffffff168152602001908152602001600020600082825461231391906131d7565b92505081905550816002600083815260200190815260200160002060006101000a81548173ffffffffffffffffffffffffffffffffffffffff021916908373ffffffffffffffffffffffffffffffffffffffff160217905550808273ffffffffffffffffffffffffffffffffffffffff16600073ffffffffffffffffffffffffffffffffffffffff167fddf252ad1be2c89b69c2b068fc378daa952ba7f163c4a11628f55a4df523b3ef60405160405180910390a45050565b8280546123d8906133a2565b90600052602060002090601f0160209004810192826123fa5760008555612441565b82601f1061241357805160ff1916838001178555612441565b82800160010185558215612441579182015b82811115612440578251825591602001919060010190612425565b5b50905061244e9190612452565b5090565b5b8082111561246b576000816000905550600101612453565b5090565b600061248261247d8461314e565b613129565b90508281526020810184848401111561249a57600080fd5b6124a5848285613360565b509392505050565b6000813590506124bc81613bd6565b92915050565b6000813590506124d181613bed565b92915050565b6000813590506124e681613c04565b92915050565b6000815190506124fb81613c04565b92915050565b600082601f83011261251257600080fd5b813561252284826020860161246f565b91505092915050565b60008135905061253a81613c1b565b92915050565b60006020828403121561255257600080fd5b6000612560848285016124ad565b91505092915050565b6000806040838503121561257c57600080fd5b600061258a858286016124ad565b925050602061259b858286016124ad565b9150509250929050565b6000806000606084860312156125ba57600080fd5b60006125c8868287016124ad565b93505060206125d9868287016124ad565b92505060406125ea8682870161252b565b9150509250925092565b6000806000806080858703121561260a57600080fd5b6000612618878288016124ad565b9450506020612629878288016124ad565b935050604061263a8782880161252b565b925050606085013567ffffffffffffffff81111561265757600080fd5b61266387828801612501565b91505092959194509250565b6000806040838503121561268257600080fd5b6000612690858286016124ad565b92505060206126a1858286016124c2565b9150509250929050565b600080604083850312156126be57600080fd5b60006126cc858286016124ad565b92505060206126dd8582860161252b565b9150509250929050565b6000602082840312156126f957600080fd5b6000612707848285016124d7565b91505092915050565b60006020828403121561272257600080fd5b6000612730848285016124ec565b91505092915050565b60006020828403121561274b57600080fd5b60006127598482850161252b565b91505092915050565b61276b816132ec565b82525050565b61277a816132fe565b82525050565b600061278b82613194565b61279581856131aa565b93506127a581856020860161336f565b6127ae8161353b565b840191505092915050565b60006127c48261319f565b6127ce81856131bb565b93506127de81856020860161336f565b6127e78161353b565b840191505092915050565b60006127fd8261319f565b61280781856131cc565b935061281781856020860161336f565b80840191505092915050565b60008154612830816133a2565b61283a81866131cc565b94506001821660008114612855576001811461286657612899565b60ff19831686528186019350612899565b61286f8561317f565b60005b8381101561289157815481890152600182019150602081019050612872565b838801955050505b50505092915050565b60006128af6032836131bb565b91506128ba8261354c565b604082019050919050565b60006128d2601c836131bb565b91506128dd8261359b565b602082019050919050565b60006128f5600a836131cc565b9150612900826135c4565b600a82019050919050565b60006129186024836131bb565b9150612923826135ed565b604082019050919050565b600061293b6019836131bb565b91506129468261363c565b602082019050919050565b600061295e6063836131cc565b915061296982613665565b606382019050919050565b6000612981600b836131cc565b915061298c82613700565b600b82019050919050565b60006129a4602c836131bb565b91506129af82613729565b604082019050919050565b60006129c7600d836131cc565b91506129d282613778565b600d82019050919050565b60006129ea6038836131bb565b91506129f5826137a1565b604082019050919050565b6000612a0d602a836131bb565b9150612a18826137f0565b604082019050919050565b6000612a306029836131bb565b9150612a3b8261383f565b604082019050919050565b6000612a53602e836131bb565b9150612a5e8261388e565b604082019050919050565b6000612a766002836131cc565b9150612a81826138dd565b600282019050919050565b6000612a99600b836131bb565b9150612aa482613906565b602082019050919050565b6000612abc6020836131bb565b9150612ac78261392f565b602082019050919050565b6000612adf6031836131bb565b9150612aea82613958565b604082019050919050565b6000612b02602c836131bb565b9150612b0d826139a7565b604082019050919050565b6000612b256029836131bb565b9150612b30826139f6565b604082019050919050565b6000612b48602f836131bb565b9150612b5382613a45565b604082019050919050565b6000612b6b600a836131cc565b9150612b7682613a94565b600a82019050919050565b6000612b8e6021836131bb565b9150612b9982613abd565b604082019050919050565b6000612bb1600a836131cc565b9150612bbc82613b0c565b600a82019050919050565b6000612bd4601d836131cc565b9150612bdf82613b35565b601d82019050919050565b6000612bf76031836131bb565b9150612c0282613b5e565b604082019050919050565b6000612c1a6005836131cc565b9150612c2582613bad565b600582019050919050565b612c3981613356565b82525050565b6000612c4b82846127f2565b915081905092915050565b6000612c6282856127f2565b9150612c6e82846127f2565b91508190509392505050565b6000612c8682866127f2565b9150612c9282856127f2565b9150612c9e82846127f2565b9150819050949350505050565b6000612cb78287612823565b9150612cc382866127f2565b9150612ccf8285612823565b9150612cdb82846127f2565b9150612ce6826129ba565b915081905095945050505050565b6000612cff826128e8565b9150612d0b82846127f2565b915081905092915050565b6000612d2182612974565b9150612d2d82846127f2565b915081905092915050565b6000612d4382612b5e565b9150612d4f82856127f2565b9150612d5a82612951565b9150612d6682846127f2565b9150612d7182612a69565b91508190509392505050565b6000612d8882612ba4565b9150612d9482846127f2565b915081905092915050565b6000612daa82612bc7565b9150612db682846127f2565b915081905092915050565b6000612dcc82612c0d565b9150612dd882846127f2565b915081905092915050565b6000602082019050612df86000830184612762565b92915050565b6000608082019050612e136000830187612762565b612e206020830186612762565b612e2d6040830185612c30565b8181036060830152612e3f8184612780565b905095945050505050565b6000604082019050612e5f6000830185612762565b612e6c6020830184612c30565b9392505050565b6000602082019050612e886000830184612771565b92915050565b60006020820190508181036000830152612ea881846127b9565b905092915050565b60006060820190508181036000830152612eca81866127b9565b9050612ed96020830185612c30565b612ee66040830184612762565b949350505050565b60006020820190508181036000830152612f07816128a2565b9050919050565b60006020820190508181036000830152612f27816128c5565b9050919050565b60006020820190508181036000830152612f478161290b565b9050919050565b60006020820190508181036000830152612f678161292e565b9050919050565b60006020820190508181036000830152612f8781612997565b9050919050565b60006020820190508181036000830152612fa7816129dd565b9050919050565b60006020820190508181036000830152612fc781612a00565b9050919050565b60006020820190508181036000830152612fe781612a23565b9050919050565b6000602082019050818103600083015261300781612a46565b9050919050565b6000602082019050818103600083015261302781612a8c565b9050919050565b6000602082019050818103600083015261304781612aaf565b9050919050565b6000602082019050818103600083015261306781612ad2565b9050919050565b6000602082019050818103600083015261308781612af5565b9050919050565b600060208201905081810360008301526130a781612b18565b9050919050565b600060208201905081810360008301526130c781612b3b565b9050919050565b600060208201905081810360008301526130e781612b81565b9050919050565b6000602082019050818103600083015261310781612bea565b9050919050565b60006020820190506131236000830184612c30565b92915050565b6000613133613144565b905061313f82826133d4565b919050565b6000604051905090565b600067ffffffffffffffff8211156131695761316861350c565b5b6131728261353b565b9050602081019050919050565b60008190508160005260206000209050919050565b600081519050919050565b600081519050919050565b600082825260208201905092915050565b600082825260208201905092915050565b600081905092915050565b60006131e282613356565b91506131ed83613356565b9250827fffffffffffffffffffffffffffffffffffffffffffffffffffffffffffffffff038211156132225761322161347f565b5b828201905092915050565b600061323882613356565b915061324383613356565b925082613253576132526134ae565b5b828204905092915050565b600061326982613356565b915061327483613356565b9250817fffffffffffffffffffffffffffffffffffffffffffffffffffffffffffffffff04831182151516156132ad576132ac61347f565b5b828202905092915050565b60006132c382613356565b91506132ce83613356565b9250828210156132e1576132e061347f565b5b828203905092915050565b60006132f782613336565b9050919050565b60008115159050919050565b60007fffffffff0000000000000000000000000000000000000000000000000000000082169050919050565b600073ffffffffffffffffffffffffffffffffffffffff82169050919050565b6000819050919050565b82818337600083830152505050565b60005b8381101561338d578082015181840152602081019050613372565b8381111561339c576000848401525b50505050565b600060028204905060018216806133ba57607f821691505b602082108114156133ce576133cd6134dd565b5b50919050565b6133dd8261353b565b810181811067ffffffffffffffff821117156133fc576133fb61350c565b5b80604052505050565b600061341082613356565b91507fffffffffffffffffffffffffffffffffffffffffffffffffffffffffffffffff8214156134435761344261347f565b5b600182019050919050565b600061345982613356565b915061346483613356565b925082613474576134736134ae565b5b828206905092915050565b7f4e487b7100000000000000000000000000000000000000000000000000000000600052601160045260246000fd5b7f4e487b7100000000000000000000000000000000000000000000000000000000600052601260045260246000fd5b7f4e487b7100000000000000000000000000000000000000000000000000000000600052602260045260246000fd5b7f4e487b7100000000000000000000000000000000000000000000000000000000600052604160045260246000fd5b6000601f19601f8301169050919050565b7f4552433732313a207472616e7366657220746f206e6f6e20455243373231526560008201527f63656976657220696d706c656d656e7465720000000000000000000000000000602082015250565b7f4552433732313a20746f6b656e20616c7265616479206d696e74656400000000600082015250565b7f54484952445f574f524400000000000000000000000000000000000000000000600082015250565b7f4552433732313a207472616e7366657220746f20746865207a65726f2061646460008201527f7265737300000000000000000000000000000000000000000000000000000000602082015250565b7f4552433732313a20617070726f766520746f2063616c6c657200000000000000600082015250565b7f222c20226465736372697074696f6e223a20224120686967686c79206163636c60008201527f61696d656420636f6c6c656374696f6e206f6620737175617265732e222c202260208201527f696d616765223a2022646174613a696d6167652f7376672b786d6c3b6261736560408201527f36342c0000000000000000000000000000000000000000000000000000000000606082015250565b7f5345434f4e445f574f5244000000000000000000000000000000000000000000600082015250565b7f4552433732313a206f70657261746f7220717565727920666f72206e6f6e657860008201527f697374656e7420746f6b656e0000000000000000000000000000000000000000602082015250565b7f3c2f746578743e3c2f7376673e00000000000000000000000000000000000000600082015250565b7f4552433732313a20617070726f76652063616c6c6572206973206e6f74206f7760008201527f6e6572206e6f7220617070726f76656420666f7220616c6c0000000000000000602082015250565b7f4552433732313a2062616c616e636520717565727920666f7220746865207a6560008201527f726f206164647265737300000000000000000000000000000000000000000000602082015250565b7f4552433732313a206f776e657220717565727920666f72206e6f6e657869737460008201527f656e7420746f6b656e0000000000000000000000000000000000000000000000602082015250565b7f45524337323155524953746f726167653a2055524920736574206f66206e6f6e60008201527f6578697374656e7420746f6b656e000000000000000000000000000000000000602082015250565b7f227d000000000000000000000000000000000000000000000000000000000000600082015250565b7f46756c6c206d696e746564000000000000000000000000000000000000000000600082015250565b7f4552433732313a206d696e7420746f20746865207a65726f2061646472657373600082015250565b7f45524337323155524953746f726167653a2055524920717565727920666f722060008201527f6e6f6e6578697374656e7420746f6b656e000000000000000000000000000000602082015250565b7f4552433732313a20617070726f76656420717565727920666f72206e6f6e657860008201527f697374656e7420746f6b656e0000000000000000000000000000000000000000602082015250565b7f4552433732313a207472616e73666572206f6620746f6b656e2074686174206960008201527f73206e6f74206f776e0000000000000000000000000000000000000000000000602082015250565b7f4552433732314d657461646174613a2055524920717565727920666f72206e6f60008201527f6e6578697374656e7420746f6b656e0000000000000000000000000000000000602082015250565b7f7b226e616d65223a202200000000000000000000000000000000000000000000600082015250565b7f4552433732313a20617070726f76616c20746f2063757272656e74206f776e6560008201527f7200000000000000000000000000000000000000000000000000000000000000602082015250565b7f46495253545f574f524400000000000000000000000000000000000000000000600082015250565b7f646174613a6170706c69636174696f6e2f6a736f6e3b6261736536342c000000600082015250565b7f4552433732313a207472616e736665722063616c6c6572206973206e6f74206f60008201527f776e6572206e6f7220617070726f766564000000000000000000000000000000602082015250565b7f434f4c4f52000000000000000000000000000000000000000000000000000000600082015250565b613bdf816132ec565b8114613bea57600080fd5b50565b613bf6816132fe565b8114613c0157600080fd5b50565b613c0d8161330a565b8114613c1857600080fd5b50565b613c2481613356565b8114613c2f57600080fd5b5056fe416e204e465420772f20494420257320686173206265656e206d696e74656420746f2025734142434445464748494a4b4c4d4e4f505152535455565758595a6162636465666768696a6b6c6d6e6f707172737475767778797a303132333435363738392b2fa26469706673582212209d04dc1a2422cf4140f7702e34207666255180ead6905aca179c1d89e543a60464736f6c634300080400333c73766720786d6c6e733d27687474703a2f2f7777772e77332e6f72672f323030302f73766727207072657365727665417370656374526174696f3d27784d696e594d696e206d656574272076696577426f783d273020302033353020333530273e3c7374796c653e2e62617365207b2066696c6c3a2077686974653b20666f6e742d66616d696c793a2073657269663b20666f6e742d73697a653a20323470783b207d3c2f7374796c653e3c726563742077696474683d273130302527206865696768743d2731303025272066696c6c3d27272f3e3c7465787420783d273530252720793d273530252720636c6173733d27626173652720646f6d696e616e742d626173656c696e653d276d6964646c652720746578742d616e63686f723d276d6964646c65273e",
  "linkReferences": {},
  "deployedLinkReferences": {}
}